{
  "_format": "hh-sol-artifact-1",
  "contractName": "DvP",
  "sourceName": "contracts/DvP.sol",
  "abi": [
    {
      "inputs": [
        {
          "internalType": "address",
          "name": "initialOwner",
          "type": "address"
        },
        {
          "internalType": "address",
          "name": "_erc20Token",
          "type": "address"
        },
        {
          "internalType": "address",
          "name": "_erc1155Token",
          "type": "address"
        }
      ],
      "stateMutability": "nonpayable",
      "type": "constructor"
    },
    {
      "inputs": [
        {
          "internalType": "address",
          "name": "owner",
          "type": "address"
        }
      ],
      "name": "OwnableInvalidOwner",
      "type": "error"
    },
    {
      "inputs": [
        {
          "internalType": "address",
          "name": "account",
          "type": "address"
        }
      ],
      "name": "OwnableUnauthorizedAccount",
      "type": "error"
    },
    {
      "anonymous": false,
      "inputs": [
        {
          "indexed": false,
          "internalType": "address",
          "name": "operator",
          "type": "address"
        },
        {
          "indexed": false,
          "internalType": "address",
          "name": "from",
          "type": "address"
        },
        {
          "indexed": false,
          "internalType": "uint256[]",
          "name": "ids",
          "type": "uint256[]"
        },
        {
          "indexed": false,
          "internalType": "uint256[]",
          "name": "values",
          "type": "uint256[]"
        },
        {
          "indexed": false,
          "internalType": "bytes",
          "name": "data",
          "type": "bytes"
        }
      ],
      "name": "BatchReceived",
      "type": "event"
    },
    {
      "anonymous": false,
      "inputs": [
        {
          "indexed": true,
          "internalType": "address",
          "name": "previousOwner",
          "type": "address"
        },
        {
          "indexed": true,
          "internalType": "address",
          "name": "newOwner",
          "type": "address"
        }
      ],
      "name": "OwnershipTransferred",
      "type": "event"
    },
    {
      "anonymous": false,
      "inputs": [
        {
          "indexed": false,
          "internalType": "address",
          "name": "operator",
          "type": "address"
        },
        {
          "indexed": false,
          "internalType": "address",
          "name": "from",
          "type": "address"
        },
        {
          "indexed": false,
          "internalType": "uint256",
          "name": "id",
          "type": "uint256"
        },
        {
          "indexed": false,
          "internalType": "uint256",
          "name": "value",
          "type": "uint256"
        },
        {
          "indexed": false,
          "internalType": "bytes",
          "name": "data",
          "type": "bytes"
        }
      ],
      "name": "Received",
      "type": "event"
    },
    {
      "inputs": [],
      "name": "erc1155Token",
      "outputs": [
        {
          "internalType": "contract IERC1155",
          "name": "",
          "type": "address"
        }
      ],
      "stateMutability": "view",
      "type": "function"
    },
    {
      "inputs": [],
      "name": "erc20Token",
      "outputs": [
        {
          "internalType": "contract IERC20",
          "name": "",
          "type": "address"
        }
      ],
      "stateMutability": "view",
      "type": "function"
    },
    {
      "inputs": [
        {
          "internalType": "uint256",
          "name": "tokenId",
          "type": "uint256"
        },
        {
          "internalType": "uint256",
          "name": "amount",
          "type": "uint256"
        }
      ],
      "name": "exchange",
      "outputs": [],
      "stateMutability": "nonpayable",
      "type": "function"
    },
    {
      "inputs": [
        {
          "internalType": "address",
          "name": "operator",
          "type": "address"
        },
        {
          "internalType": "address",
          "name": "from",
          "type": "address"
        },
        {
          "internalType": "uint256[]",
          "name": "ids",
          "type": "uint256[]"
        },
        {
          "internalType": "uint256[]",
          "name": "values",
          "type": "uint256[]"
        },
        {
          "internalType": "bytes",
          "name": "data",
          "type": "bytes"
        }
      ],
      "name": "onERC1155BatchReceived",
      "outputs": [
        {
          "internalType": "bytes4",
          "name": "",
          "type": "bytes4"
        }
      ],
      "stateMutability": "nonpayable",
      "type": "function"
    },
    {
      "inputs": [
        {
          "internalType": "address",
          "name": "operator",
          "type": "address"
        },
        {
          "internalType": "address",
          "name": "from",
          "type": "address"
        },
        {
          "internalType": "uint256",
          "name": "id",
          "type": "uint256"
        },
        {
          "internalType": "uint256",
          "name": "value",
          "type": "uint256"
        },
        {
          "internalType": "bytes",
          "name": "data",
          "type": "bytes"
        }
      ],
      "name": "onERC1155Received",
      "outputs": [
        {
          "internalType": "bytes4",
          "name": "",
          "type": "bytes4"
        }
      ],
      "stateMutability": "nonpayable",
      "type": "function"
    },
    {
      "inputs": [],
      "name": "owner",
      "outputs": [
        {
          "internalType": "address",
          "name": "",
          "type": "address"
        }
      ],
      "stateMutability": "view",
      "type": "function"
    },
    {
      "inputs": [],
      "name": "renounceOwnership",
      "outputs": [],
      "stateMutability": "nonpayable",
      "type": "function"
    },
    {
      "inputs": [
        {
          "internalType": "uint256",
          "name": "tokenId",
          "type": "uint256"
        },
        {
          "internalType": "uint256",
          "name": "value",
          "type": "uint256"
        }
      ],
      "name": "setTokenValue",
      "outputs": [],
      "stateMutability": "nonpayable",
      "type": "function"
    },
    {
      "inputs": [
        {
          "internalType": "bytes4",
          "name": "interfaceId",
          "type": "bytes4"
        }
      ],
      "name": "supportsInterface",
      "outputs": [
        {
          "internalType": "bool",
          "name": "",
          "type": "bool"
        }
      ],
      "stateMutability": "view",
      "type": "function"
    },
    {
      "inputs": [
        {
          "internalType": "uint256",
          "name": "",
          "type": "uint256"
        }
      ],
      "name": "tokenValues",
      "outputs": [
        {
          "internalType": "uint256",
          "name": "",
          "type": "uint256"
        }
      ],
      "stateMutability": "view",
      "type": "function"
    },
    {
      "inputs": [
        {
          "internalType": "address",
          "name": "newOwner",
          "type": "address"
        }
      ],
      "name": "transferOwnership",
      "outputs": [],
      "stateMutability": "nonpayable",
      "type": "function"
    },
    {
      "inputs": [
        {
          "internalType": "uint256",
          "name": "tokenId",
          "type": "uint256"
        },
        {
          "internalType": "uint256",
          "name": "amount",
          "type": "uint256"
        }
      ],
      "name": "withdrawERC1155",
      "outputs": [],
      "stateMutability": "nonpayable",
      "type": "function"
    },
    {
      "inputs": [
        {
          "internalType": "uint256",
          "name": "amount",
          "type": "uint256"
        }
      ],
      "name": "withdrawERC20",
      "outputs": [],
      "stateMutability": "nonpayable",
      "type": "function"
    }
  ],
  "bytecode": "0x608060405234801561001057600080fd5b50604051610cff380380610cff83398101604081905261002f91610106565b826001600160a01b03811661005e57604051631e4fbdf760e01b81526000600482015260240160405180910390fd5b6100678161009a565b50600180546001600160a01b039384166001600160a01b0319918216179091556002805492909316911617905550610149565b600080546001600160a01b038381166001600160a01b0319831681178455604051919092169283917f8be0079c531659141344cd1fd0a4f28419497f9722a3daafe3b4186f6b6457e09190a35050565b80516001600160a01b038116811461010157600080fd5b919050565b60008060006060848603121561011b57600080fd5b610124846100ea565b9250610132602085016100ea565b9150610140604085016100ea565b90509250925092565b610ba7806101586000396000f3fe608060405234801561001057600080fd5b50600436106100cf5760003560e01c80638a13eea71161008c578063d4b7eac311610066578063d4b7eac3146101d5578063d78276c6146101e8578063f23a6e61146101fb578063f2fde38b1461020e57600080fd5b80638a13eea7146101855780638da5cb5b14610198578063bc197c81146101a957600080fd5b806301ffc9a7146100d4578063059fb570146100fc57806321f42268146101115780634eb84bff1461013c5780636b225fe41461014f578063715018a61461017d575b600080fd5b6100e76100e236600461076f565b610221565b60405190151581526020015b60405180910390f35b61010f61010a3660046107a0565b610258565b005b600254610124906001600160a01b031681565b6040516001600160a01b0390911681526020016100f3565b61010f61014a3660046107a0565b610272565b61016f61015d3660046107c2565b60036020526000908152604090205481565b6040519081526020016100f3565b61010f6102e6565b600154610124906001600160a01b031681565b6000546001600160a01b0316610124565b6101bc6101b7366004610885565b6102fa565b6040516001600160e01b031990911681526020016100f3565b61010f6101e33660046107a0565b610356565b61010f6101f63660046107c2565b6105dd565b6101bc610209366004610940565b61065e565b61010f61021c3660046109b8565b6106b4565b60006001600160e01b03198216630271189760e51b148061025257506301ffc9a760e01b6001600160e01b03198316145b92915050565b6102606106f2565b60009182526003602052604090912055565b61027a6106f2565b600254604051637921219560e11b81526001600160a01b039091169063f242432a906102b09030903390879087906004016109d3565b600060405180830381600087803b1580156102ca57600080fd5b505af11580156102de573d6000803e3d6000fd5b505050505050565b6102ee6106f2565b6102f8600061071f565b565b60007f9facaeece8596899cc39b65f0d1e262008ade8403076a2dfb6df2004fc8d96528989898989898989604051610339989796959493929190610a66565b60405180910390a15063bc197c8160e01b98975050505050505050565b600082815260036020526040812054610370908390610aca565b6001546040516370a0823160e01b815233600482015291925082916001600160a01b03909116906370a0823190602401602060405180830381865afa1580156103bd573d6000803e3d6000fd5b505050506040513d601f19601f820116820180604052508101906103e19190610aef565b10156104345760405162461bcd60e51b815260206004820152601a60248201527f496e73756666696369656e742045524332302062616c616e636500000000000060448201526064015b60405180910390fd5b600154604051636eb1769f60e11b815233600482015230602482015282916001600160a01b03169063dd62ed3e90604401602060405180830381865afa158015610482573d6000803e3d6000fd5b505050506040513d601f19601f820116820180604052508101906104a69190610aef565b10156104f45760405162461bcd60e51b815260206004820152601760248201527f455243323020616c6c6f77616e636520746f6f206c6f77000000000000000000604482015260640161042b565b6001546040516323b872dd60e01b8152336004820152306024820152604481018390526001600160a01b03909116906323b872dd906064016020604051808303816000875af115801561054b573d6000803e3d6000fd5b505050506040513d601f19601f8201168201806040525081019061056f9190610b08565b50600254604051637921219560e11b81526001600160a01b039091169063f242432a906105a69030903390889088906004016109d3565b600060405180830381600087803b1580156105c057600080fd5b505af11580156105d4573d6000803e3d6000fd5b50505050505050565b6105e56106f2565b60015460405163a9059cbb60e01b8152336004820152602481018390526001600160a01b039091169063a9059cbb906044016020604051808303816000875af1158015610636573d6000803e3d6000fd5b505050506040513d601f19601f8201168201806040525081019061065a9190610b08565b5050565b60007fe4b060c773f3fcca980bf840b0e2856ca36598bb4da2c0c3913b89050630df3787878787878760405161069996959493929190610b2a565b60405180910390a15063f23a6e6160e01b9695505050505050565b6106bc6106f2565b6001600160a01b0381166106e657604051631e4fbdf760e01b81526000600482015260240161042b565b6106ef8161071f565b50565b6000546001600160a01b031633146102f85760405163118cdaa760e01b815233600482015260240161042b565b600080546001600160a01b038381166001600160a01b0319831681178455604051919092169283917f8be0079c531659141344cd1fd0a4f28419497f9722a3daafe3b4186f6b6457e09190a35050565b60006020828403121561078157600080fd5b81356001600160e01b03198116811461079957600080fd5b9392505050565b600080604083850312156107b357600080fd5b50508035926020909101359150565b6000602082840312156107d457600080fd5b5035919050565b80356001600160a01b03811681146107f257600080fd5b919050565b60008083601f84011261080957600080fd5b50813567ffffffffffffffff81111561082157600080fd5b6020830191508360208260051b850101111561083c57600080fd5b9250929050565b60008083601f84011261085557600080fd5b50813567ffffffffffffffff81111561086d57600080fd5b60208301915083602082850101111561083c57600080fd5b60008060008060008060008060a0898b0312156108a157600080fd5b6108aa896107db565b97506108b860208a016107db565b9650604089013567ffffffffffffffff808211156108d557600080fd5b6108e18c838d016107f7565b909850965060608b01359150808211156108fa57600080fd5b6109068c838d016107f7565b909650945060808b013591508082111561091f57600080fd5b5061092c8b828c01610843565b999c989b5096995094979396929594505050565b60008060008060008060a0878903121561095957600080fd5b610962876107db565b9550610970602088016107db565b94506040870135935060608701359250608087013567ffffffffffffffff81111561099a57600080fd5b6109a689828a01610843565b979a9699509497509295939492505050565b6000602082840312156109ca57600080fd5b610799826107db565b6001600160a01b0394851681529290931660208301526040820152606081019190915260a06080820181905260009082015260c00190565b81835260006001600160fb1b03831115610a2457600080fd5b8260051b80836020870137939093016020019392505050565b81835281816020850137506000828201602090810191909152601f909101601f19169091010190565b6001600160a01b0389811682528816602082015260a060408201819052600090610a93908301888a610a0b565b8281036060840152610aa6818789610a0b565b90508281036080840152610abb818587610a3d565b9b9a5050505050505050505050565b808202811582820484141761025257634e487b7160e01b600052601160045260246000fd5b600060208284031215610b0157600080fd5b5051919050565b600060208284031215610b1a57600080fd5b8151801515811461079957600080fd5b6001600160a01b03878116825286166020820152604081018590526060810184905260a060808201819052600090610b659083018486610a3d565b9897505050505050505056fea26469706673582212208afc489a6df5031fd1279d7a83731cf842810fac617e5c17dd8abbea968fcd5364736f6c63430008140033",
  "linkReferences": {},
  "deployedLinkReferences": {}
}